:020000040800F2
:10000000E0070120A1020008A9020008AB020008D5
:10001000AD020008AF020008B102000800000000B5
:10002000000000000000000000000000B302000813
:10003000B502000800000000B70200082104000813
:10004000BB020008BB020008BB020008BB0200089C
:10005000BB020008BB02000899030008E103000886
:1000600001040008BB020008BB020008BB02000834
:10007000BB020008BB020008BB020008BB0200086C
:10008000BB020008BB020008BB020008BB0200085C
:10009000BB020008BB020008BB020008BB0200084C
:1000A000BB020008BB020008BB020008BB0200083C
:1000B000BB020008BB020008BB020008BB0200082C
:1000C000BB020008BB020008BB020008BB0200081C
:1000D000BB020008BB020008BB020008BB0200080C
:1000E000B9030008BB020008BB020008BB020008FD
:1000F000BB020008BB020008BB020008BB020008EC
:10010000BB020008BB020008BB020008BB020008DB
:10011000BB020008BB020008BB020008BB020008CB
:10012000BB020008BB020008BB020008BB020008BB
:10013000BB020008BB020008BB020008BB020008AB
:10014000BB020008BB020008BB020008BB0200089B
:10015000BB020008BB020008BB020008BB0200088B
:10016000BB020008BB020008BB020008BB0200087B
:10017000BB020008BB020008BB0200080000000030
:10018000BB020008BB020008BB020008BB0200085B
:10019000BB020008BB020008BB020008BB0200084B
:1001A000BB020008BB020008BB020008BB0200083B
:1001B000BB020008BB020008BB020008BB0200082B
:1001C000BB020008BB02000800F002F800F03EF895
:1001D0000AA090E8000C82448344AAF10107DA45A2
:1001E00001D100F033F8AFF2090EBAE80F0013F0B6
:1001F000010F18BFFB1A43F001031847EC0700007A
:100200000C080000103A24BF78C878C1FAD8520709
:1002100024BF30C830C144BF04680C607047000080
:100220000023002400250026103A28BF78C1FBD8FF
:10023000520728BF30C148BF0B6070471FB500F0A0
:10024000BEFB00F062F81FBD10B510BD00F069F8EC
:100250001146FFF7F3FF00F013FB00F087F803B43B
:10026000FFF7F2FF03BC00F091F800000B49D1F852
:1002700000C04A685CF8043B1068184442F8040B5C
:100280008C4528BFA1F1DC0C8A4228BFA1F1DC0219
:10029000C1F800C04A6020F00040704724010120EE
:1002A0000948804709480047FEE7FEE7FEE7FEE70A
:1002B000FEE7FEE7FEE7FEE7FEE7FEE70448054946
:1002C000054A064B70470000C9050008C90100082F
:1002D000E0010120E0070120E0030120E00301200C
:1002E0000B4910B5A1F17C020A4CC2E93712372143
:1002F00006E000EB104342F82130074B00FB0340BF
:100300000B1EA1F10101F4DC10BD0120E8E70000A3
:10031000C4000120E119D666CD0D01007047704779
:100320007047754600F02CF8AE4605006946534606
:1003300020F00700854618B020B5FFF7BFFFBDE8E5
:1003400020404FF000064FF000074FF000084FF03C
:10035000000BAC46ACE8C009ACE8C009ACE8C00989
:10036000ACE8C00921F007018D46704710B504467E
:10037000AFF300802046BDE81040FFF770BF0000DB
:10038000004870472C0101207047000001491820E7
:10039000ABBEFEE72600020043F61440C4F20100A3
:1003A000016841F00101016040F2D8100121C2F260
:1003B000010001807047000043F61440C4F20100C0
:1003C000016841F40051016040F2DC10C2F201000A
:1003D000017881F001010170704700000000000009
:1003E00043F61440C4F20100016841F002010160CB
:1003F00040F2D8100221C2F20100018070470000D3
:1004000043F61440C4F20100016841F004010160A8
:1004100040F2D8100321C2F20100018070470000B1
:1004200070B540F2DA1040F2D814C2F20100C2F204
:1004300001040188238801310AB2032AC8BF0021C0
:10044000012B018025D140F2A01640F28C15C2F29A
:10045000010640F2D412C2F20105C2F20102316873
:1004600001312868B1F5FA7F1060316011D1FFF7D2
:10047000FDFE40F64301C8F2214151FB00010A1183
:1004800002EBD171C1EB4111401A143028600020F9
:100490003060208803282DD0022853D140F29812D2
:1004A00040F29411C2F20102C2F2010140F2D415ED
:1004B0001668C2F2010501360B680A2E2B60166021
:1004C00016D140F2DC16C2F2010636783EB10B6856
:1004D00042F20F76013BB34238BF1E4605E042F2BE
:1004E0000F750026AB4238BF5E1C0E600021116004
:1004F000032827D140F29C1540F29014C2F2010566
:1005000040F2D412C2F20104C2F2010229680131A0
:100510002068B1F5966F1060296018BF70BDFFF7B5
:10052000A5FE40F22151C8F2343151FB00014A12BC
:1005300002EBD17140F2E73201FB12000130206082
:100540000020286070BD000043F60400C4F20200E1
:10055000416801F00C0242F20041082AC0F2F401A5
:1005600006D0042A1DD147F64001C0F27D1118E0E3
:1005700002680368520247F64002C0F27D1258BF7B
:100580000A4603F03F01B2FBF1F102680368C2F3CF
:100590008812C3F301435143022202EB4302B1FB31
:1005A000F2F140F24402C2F20102116040F6D811A9
:1005B0004068C0F60001C0F30310085C116821FA1E
:1005C00000F01060704700004EF68850CEF2000038
:1005D000016841F4700101604FF0006140F8801C37
:1005E000704700000000000040F2D41046F267613E
:1005F000C2F20100C6F2666140F2A41C0068C2F2B9
:10060000010C50FB01F18A1002EBD17340F2DA12B7
:10061000C2F20102CCF8003003EB8301B2F90020F2
:100620004942032A00EB4100CCF804002ED840F6E2
:100630001440C4F20200DFE802F00207121B0E2190
:100640000160DCF8041003E00D210160DCF800100B
:1006500040F20002C2F2010202EB810110E040F21E
:1006600000020B21C2F20102016002F1400107E029
:1006700040F200020721C2F20102016002F12801EA
:100680004FF600020968CFF6FF72815070470000F4
:1006900080B540F2D41044F6D351C2F20100C1F249
:1006A000620140F2B41E0068C2F2010E50FB01F17B
:1006B0008A1102EBD17C4FF61842CFF6FF72CEF8CA
:1006C00000C00CFB020048F21F52C5F2EB1250FBB7
:1006D00002F2531103EBD2726FF0630302FB0303C8
:1006E00046F26760C6F26660CEF8042053FB00F065
:1006F000811001EBD07140F2DA10C2F20100CEF8A5
:10070000081001EB810CB0F90000CCF100020328C5
:1007100003EB4201CEF80C1088BF80BD0EA140F261
:10072000144309A2C4F2020351F8201052F8200029
:10073000C3F80008086840F20001C2F2010151F854
:100740002000186080BD00BF0E0000000D000000FA
:100750000B00000007000000C0010120BC010120C7
:10076000B8010120B401012080B540F2D41048F254
:100770001F51C2F20100C5F2EB1140F2C41C006827
:10078000C2F2010C50FB01F14A1102EBD17E6FF075
:1007900063010EFB010046F26761C6F26661CCF8A8
:1007A00004E050FB01F18A1002EBD17140F2DA1241
:1007B000C2F20102CCF8081001EB8103B2F900206B
:1007C0005B42032A00EB4300CCF80C002AD840F629
:1007D0001440C4F20200DFE802F0020B101540F2F0
:1007E00000020E21C2F20102016002F13C0113E09D
:1007F0000D210160DCF80C1008E00B210160DCF831
:10080000081003E007210160DCF8041040F2000248
:10081000C2F2010202EB81014FF600020968CFF635
:10082000FF72815080BD0000B0B501380024B4EBE8
:10083000106F18BFB0BD4EF21005CEF20005686013
:1008400000F016F8AC6007202860B0BD0000000082
:10085000C1B24EF20012CEF2000200F01F0042EAD6
:10086000D101012221F0030102FA00F00860704773
:100870004EF62350F021CEF20000017070470000C8
:1008800043F6300040F21444C4F20200C4F2020401
:10089000016841F02E010160416941F480414161EC
:1008A00041F2555044F8140C002144F8101C44F84F
:1008B0000C0C44F8080C40F60C00C4F20200D0F80E
:1008C000F41341F05501C0F8F413D0F8F813C0F850
:1008D000F813D0F8FC1341F0AA01C0F8FC13D0F8CB
:1008E0000014C0F80014D4F8EC13C4F8EC13016839
:1008F000016041F20040C4F2020001680160C16879
:10090000C160FFF721FE40F2440044F6D351C2F229
:100910000100C1F262010068A0FB01018809FFF734
:1009200083FF4FF6084043F60041CFF6FF70C4F254
:10093000010140F2555242F205030A504FF61440AD
:10094000CFF6FF7020220A5042F2070208681043D7
:10095000086043F60C40C4F2010002681A430260CA
:10096000886840F0020088600620FFF771FF0720CA
:10097000FFF76EFF0820FFF76BFF2820FFF768FFE7
:1009800040F2D81540F20006C2F20105C2F201069B
:100990002888012806D038B9306C216808432060C7
:1009A00002E000BFFFF720FE2888022801D1FFF7F0
:1009B0006FFE28880328EBD1FFF7D6FEE8E7F1EEBB
:1009C000100A4FF6FF71C0F2C03120EA010040F07A
:1009D0004070E1EE100A70470000000000000000C7
:1009E0000102030406070809080A000800000120A4
:1009F0004800000004020008500A000848000120D6
:100A00009807000020020008010000004F000000CD
:100A100012000000060000004C000000240000004E
:100A2000200000000F000000000000000400000093
:100A300008000000600000003100000042000000DB
:100A400030000000380000007E0000000024F400A8
:04000005080002A14C
:00000001FF
